{
  "contractName": "Bidding",
  "abi": [
    {
      "inputs": [],
      "stateMutability": "nonpayable",
      "type": "constructor"
    },
    {
      "inputs": [],
      "name": "AuctionAlreadyEnded",
      "type": "error"
    },
    {
      "inputs": [],
      "name": "AuctionNotYetEnded",
      "type": "error"
    },
    {
      "inputs": [
        {
          "internalType": "uint256",
          "name": "highestBid",
          "type": "uint256"
        }
      ],
      "name": "BidNotHighEnough",
      "type": "error"
    },
    {
      "anonymous": false,
      "inputs": [
        {
          "indexed": true,
          "internalType": "address",
          "name": "winner",
          "type": "address"
        },
        {
          "indexed": true,
          "internalType": "uint256",
          "name": "amount",
          "type": "uint256"
        }
      ],
      "name": "AuctionEnded",
      "type": "event"
    },
    {
      "anonymous": false,
      "inputs": [
        {
          "indexed": true,
          "internalType": "address",
          "name": "bidder",
          "type": "address"
        },
        {
          "indexed": true,
          "internalType": "uint256",
          "name": "amount",
          "type": "uint256"
        },
        {
          "indexed": true,
          "internalType": "uint256",
          "name": "commission",
          "type": "uint256"
        }
      ],
      "name": "HighestBidIncreased",
      "type": "event"
    },
    {
      "inputs": [],
      "name": "auctionEndTime",
      "outputs": [
        {
          "internalType": "uint256",
          "name": "",
          "type": "uint256"
        }
      ],
      "stateMutability": "view",
      "type": "function",
      "constant": true
    },
    {
      "inputs": [],
      "name": "commission",
      "outputs": [
        {
          "internalType": "uint256",
          "name": "",
          "type": "uint256"
        }
      ],
      "stateMutability": "view",
      "type": "function",
      "constant": true
    },
    {
      "inputs": [],
      "name": "highestBid",
      "outputs": [
        {
          "internalType": "uint256",
          "name": "",
          "type": "uint256"
        }
      ],
      "stateMutability": "view",
      "type": "function",
      "constant": true
    },
    {
      "inputs": [],
      "name": "highestBidder",
      "outputs": [
        {
          "internalType": "address payable",
          "name": "",
          "type": "address"
        }
      ],
      "stateMutability": "view",
      "type": "function",
      "constant": true
    },
    {
      "inputs": [],
      "name": "getHighestBid",
      "outputs": [
        {
          "internalType": "uint256",
          "name": "",
          "type": "uint256"
        }
      ],
      "stateMutability": "view",
      "type": "function",
      "constant": true
    },
    {
      "inputs": [],
      "name": "getCommission",
      "outputs": [
        {
          "internalType": "uint256",
          "name": "",
          "type": "uint256"
        }
      ],
      "stateMutability": "view",
      "type": "function",
      "constant": true
    },
    {
      "inputs": [],
      "name": "gettotalRewards",
      "outputs": [
        {
          "internalType": "uint256",
          "name": "",
          "type": "uint256"
        }
      ],
      "stateMutability": "view",
      "type": "function",
      "constant": true
    },
    {
      "inputs": [],
      "name": "bid",
      "outputs": [],
      "stateMutability": "payable",
      "type": "function",
      "payable": true
    },
    {
      "inputs": [],
      "name": "auctionEnd",
      "outputs": [],
      "stateMutability": "nonpayable",
      "type": "function"
    }
  ],
  "bytecode": "0x608060405234801561001057600080fd5b50610e104261001f9190610063565b6001819055506100b9565b6000819050919050565b7f4e487b7100000000000000000000000000000000000000000000000000000000600052601160045260246000fd5b600061006e8261002a565b91506100798361002a565b9250827fffffffffffffffffffffffffffffffffffffffffffffffffffffffffffffffff038211156100ae576100ad610034565b5b828201905092915050565b610752806100c86000396000f3fe6080604052600436106100865760003560e01c80634b449cba116100595780634b449cba1461010257806391f901571461012d578063d57bde7914610158578063e148919114610183578063e65d6b49146101ae57610086565b80631998aeef1461008b5780632a24f46c146100955780632cba772e146100ac5780634979440a146100d7575b600080fd5b6100936101d9565b005b3480156100a157600080fd5b506100aa610377565b005b3480156100b857600080fd5b506100c1610490565b6040516100ce9190610566565b60405180910390f35b3480156100e357600080fd5b506100ec61049a565b6040516100f99190610566565b60405180910390f35b34801561010e57600080fd5b506101176104a4565b6040516101249190610566565b60405180910390f35b34801561013957600080fd5b506101426104aa565b60405161014f91906105c2565b60405180910390f35b34801561016457600080fd5b5061016d6104d0565b60405161017a9190610566565b60405180910390f35b34801561018f57600080fd5b506101986104d6565b6040516101a59190610566565b60405180910390f35b3480156101ba57600080fd5b506101c36104dc565b6040516101d09190610566565b60405180910390f35b600034116101e657600080fd5b600154421115610222576040517fd02e774d00000000000000000000000000000000000000000000000000000000815260040160405180910390fd5b600354341161026a576003546040517f4e12c1bb0000000000000000000000000000000000000000000000000000000081526004016102619190610566565b60405180910390fd5b6064605f34610279919061060c565b6102839190610695565b6004600082825461029491906106c6565b9250508190555060646005346102aa919061060c565b6102b49190610695565b6000808282546102c491906106c6565b9250508190555033600260006101000a81548173ffffffffffffffffffffffffffffffffffffffff021916908373ffffffffffffffffffffffffffffffffffffffff160217905550346003819055506102586001600082825461032791906106c6565b92505081905550600054343373ffffffffffffffffffffffffffffffffffffffff167fdafc4a123c6bb3b49dd38a0cba299808581a0126a37248a5f1102d5e5fa0633760405160405180910390a4565b6001544210156103b3576040517f44cee29000000000000000000000000000000000000000000000000000000000815260040160405180910390fd5b600354600260009054906101000a900473ffffffffffffffffffffffffffffffffffffffff1673ffffffffffffffffffffffffffffffffffffffff167fdaec4582d5d9595688c8c98545fdd1c696d41c6aeaeb636737e84ed2f5c00eda60405160405180910390a3600260009054906101000a900473ffffffffffffffffffffffffffffffffffffffff1673ffffffffffffffffffffffffffffffffffffffff166108fc6004549081150290604051600060405180830381858888f19350505050158015610485573d6000803e3d6000fd5b5061048e6104e5565b565b6000600454905090565b6000600354905090565b60015481565b600260009054906101000a900473ffffffffffffffffffffffffffffffffffffffff1681565b60035481565b60005481565b60008054905090565b610e10426104f391906106c6565b6001819055506000600260006101000a81548173ffffffffffffffffffffffffffffffffffffffff021916908373ffffffffffffffffffffffffffffffffffffffff16021790555060006003819055506000600481905550565b6000819050919050565b6105608161054d565b82525050565b600060208201905061057b6000830184610557565b92915050565b600073ffffffffffffffffffffffffffffffffffffffff82169050919050565b60006105ac82610581565b9050919050565b6105bc816105a1565b82525050565b60006020820190506105d760008301846105b3565b92915050565b7f4e487b7100000000000000000000000000000000000000000000000000000000600052601160045260246000fd5b60006106178261054d565b91506106228361054d565b9250817fffffffffffffffffffffffffffffffffffffffffffffffffffffffffffffffff048311821515161561065b5761065a6105dd565b5b828202905092915050565b7f4e487b7100000000000000000000000000000000000000000000000000000000600052601260045260246000fd5b60006106a08261054d565b91506106ab8361054d565b9250826106bb576106ba610666565b5b828204905092915050565b60006106d18261054d565b91506106dc8361054d565b9250827fffffffffffffffffffffffffffffffffffffffffffffffffffffffffffffffff03821115610711576107106105dd565b5b82820190509291505056fea26469706673582212200c5ba130e822d2989426ba9dd01a107b0a764d68f22d19bea356ec28354f959064736f6c634300080d0033",
  "immutableReferences": {},
  "source": "// SPDX-License-Identifier: GPL-3.0\npragma solidity ^0.8.4;\n\nuint constant extendedInterval = 10 minutes;\nuint constant gameInterval = 60 minutes;\n\ncontract Bidding {\n    uint public commission;\n    uint public auctionEndTime;\n    address payable public highestBidder;\n    uint public highestBid;\n    uint totalRewards; // total reward from all bidders\n\n    // Events \n    event HighestBidIncreased(address indexed bidder, uint indexed amount, uint indexed commission);\n    event AuctionEnded(address indexed winner, uint indexed amount);\n\n    /// The auction has already ended.\n    error AuctionAlreadyEnded();\n    /// There is already a higher or equal bid.\n    error BidNotHighEnough(uint highestBid);\n    /// The auction has not ended yet.\n    error AuctionNotYetEnded();\n\n    constructor() {\n        auctionEndTime = block.timestamp + gameInterval; //Start time\n    }\n\n    function getHighestBid() external view returns (uint) {\n        return highestBid;\n    }\n\n    function getCommission() external view returns (uint){\n        return commission;\n    }\n\n    function gettotalRewards() external view returns (uint){\n        return totalRewards;\n    }\n\n    function bid() external payable {\n        require(msg.value > 0);\n\n        if (block.timestamp > auctionEndTime)\n            {\n                revert AuctionAlreadyEnded();\n            }\n\n        if (msg.value <= highestBid)\n           {\n                revert BidNotHighEnough(highestBid);\n           }\n\n        totalRewards += msg.value * 95 / 100 ;  // rewards to winner\n        commission += msg.value * 5 / 100 ;     //commission for operation\n\n        highestBidder = payable(msg.sender);\n        highestBid = msg.value;\n        auctionEndTime += extendedInterval; \n        emit HighestBidIncreased(msg.sender, msg.value, commission);\n\n    }\n\n    /// End the auction and send rewards\n    /// to the winner.\n    function auctionEnd() external {\n        // 1. Conditions\n        if (block.timestamp < auctionEndTime)\n            {\n                revert AuctionNotYetEnded();\n            }\n\n        // 2. Effects\n        emit AuctionEnded(highestBidder, highestBid);\n\n        // 3. Interaction\n        highestBidder.transfer(totalRewards);\n        _restart();\n    }\n\n    function _restart() internal {\n        auctionEndTime = block.timestamp + gameInterval; // reset start time\n        highestBidder = payable(address(0));             // reset highest bidder\n        highestBid = 0;                                  // reset highest bid\n        totalRewards = 0;                                // rest total rewards\n    }\n}",
  "sourcePath": "/home/jh/mine/bid-contract/test/contracts/bidding.sol",
  "compiler": {
    "name": "solc",
    "version": "0.8.13+commit.abaa5c0e.Emscripten.clang"
  },
  "schemaVersion": "3.4.7",
  "updatedAt": "2022-06-11T04:37:01.613Z",
  "networkType": "ethereum",
  "devdoc": {
    "kind": "dev",
    "methods": {},
    "version": 1
  },
  "userdoc": {
    "errors": {
      "AuctionAlreadyEnded()": [
        {
          "notice": "The auction has already ended."
        }
      ],
      "AuctionNotYetEnded()": [
        {
          "notice": "The auction has not ended yet."
        }
      ],
      "BidNotHighEnough(uint256)": [
        {
          "notice": "There is already a higher or equal bid."
        }
      ]
    },
    "kind": "user",
    "methods": {
      "auctionEnd()": {
        "notice": "End the auction and send rewards to the winner."
      }
    },
    "version": 1
  }
}